{
  "_format": "hh-sol-artifact-1",
  "contractName": "ETHDaddy",
  "sourceName": "contracts/ETHDaddy.sol",
  "abi": [
    {
      "inputs": [],
      "stateMutability": "nonpayable",
      "type": "constructor"
    },
    {
      "inputs": [],
      "name": "ETHDaddy__AlreadyMinted",
      "type": "error"
    },
    {
      "inputs": [],
      "name": "ETHDaddy__DomainNotMinted",
      "type": "error"
    },
    {
      "inputs": [],
      "name": "ETHDaddy__InsufficientFundsSent",
      "type": "error"
    },
    {
      "inputs": [],
      "name": "ETHDaddy__InvalidTokenId",
      "type": "error"
    },
    {
      "inputs": [],
      "name": "ETHDaddy__NotValidOwner",
      "type": "error"
    },
    {
      "inputs": [],
      "name": "ETHDaddy__WithdrawFailed",
      "type": "error"
    },
    {
      "anonymous": false,
      "inputs": [
        {
          "indexed": true,
          "internalType": "address",
          "name": "owner",
          "type": "address"
        },
        {
          "indexed": true,
          "internalType": "address",
          "name": "approved",
          "type": "address"
        },
        {
          "indexed": true,
          "internalType": "uint256",
          "name": "tokenId",
          "type": "uint256"
        }
      ],
      "name": "Approval",
      "type": "event"
    },
    {
      "anonymous": false,
      "inputs": [
        {
          "indexed": true,
          "internalType": "address",
          "name": "owner",
          "type": "address"
        },
        {
          "indexed": true,
          "internalType": "address",
          "name": "operator",
          "type": "address"
        },
        {
          "indexed": false,
          "internalType": "bool",
          "name": "approved",
          "type": "bool"
        }
      ],
      "name": "ApprovalForAll",
      "type": "event"
    },
    {
      "anonymous": false,
      "inputs": [
        {
          "indexed": true,
          "internalType": "address",
          "name": "from",
          "type": "address"
        },
        {
          "indexed": true,
          "internalType": "address",
          "name": "to",
          "type": "address"
        },
        {
          "indexed": true,
          "internalType": "uint256",
          "name": "tokenId",
          "type": "uint256"
        }
      ],
      "name": "Transfer",
      "type": "event"
    },
    {
      "inputs": [
        {
          "internalType": "string",
          "name": "_name",
          "type": "string"
        },
        {
          "internalType": "uint256",
          "name": "_cost",
          "type": "uint256"
        }
      ],
      "name": "List",
      "outputs": [],
      "stateMutability": "nonpayable",
      "type": "function"
    },
    {
      "inputs": [
        {
          "internalType": "uint256",
          "name": "_Id",
          "type": "uint256"
        }
      ],
      "name": "Mint",
      "outputs": [],
      "stateMutability": "payable",
      "type": "function"
    },
    {
      "inputs": [],
      "name": "Withdraw",
      "outputs": [],
      "stateMutability": "nonpayable",
      "type": "function"
    },
    {
      "inputs": [
        {
          "internalType": "address",
          "name": "to",
          "type": "address"
        },
        {
          "internalType": "uint256",
          "name": "tokenId",
          "type": "uint256"
        }
      ],
      "name": "approve",
      "outputs": [],
      "stateMutability": "nonpayable",
      "type": "function"
    },
    {
      "inputs": [
        {
          "internalType": "address",
          "name": "owner",
          "type": "address"
        }
      ],
      "name": "balanceOf",
      "outputs": [
        {
          "internalType": "uint256",
          "name": "",
          "type": "uint256"
        }
      ],
      "stateMutability": "view",
      "type": "function"
    },
    {
      "inputs": [
        {
          "internalType": "uint256",
          "name": "tokenId",
          "type": "uint256"
        }
      ],
      "name": "getApproved",
      "outputs": [
        {
          "internalType": "address",
          "name": "",
          "type": "address"
        }
      ],
      "stateMutability": "view",
      "type": "function"
    },
    {
      "inputs": [],
      "name": "getBalance",
      "outputs": [
        {
          "internalType": "uint256",
          "name": "",
          "type": "uint256"
        }
      ],
      "stateMutability": "view",
      "type": "function"
    },
    {
      "inputs": [
        {
          "internalType": "uint256",
          "name": "DomainId",
          "type": "uint256"
        }
      ],
      "name": "getDomainMapping",
      "outputs": [
        {
          "components": [
            {
              "internalType": "string",
              "name": "name",
              "type": "string"
            },
            {
              "internalType": "uint256",
              "name": "cost",
              "type": "uint256"
            },
            {
              "internalType": "bool",
              "name": "isOwned",
              "type": "bool"
            }
          ],
          "internalType": "struct ETHDaddy.Domain",
          "name": "",
          "type": "tuple"
        }
      ],
      "stateMutability": "view",
      "type": "function"
    },
    {
      "inputs": [],
      "name": "getListedDomainsCount",
      "outputs": [
        {
          "internalType": "uint256",
          "name": "",
          "type": "uint256"
        }
      ],
      "stateMutability": "view",
      "type": "function"
    },
    {
      "inputs": [
        {
          "internalType": "address",
          "name": "_listee",
          "type": "address"
        }
      ],
      "name": "getListingOwnersCost",
      "outputs": [
        {
          "internalType": "uint256",
          "name": "",
          "type": "uint256"
        }
      ],
      "stateMutability": "view",
      "type": "function"
    },
    {
      "inputs": [],
      "name": "getMintedDomainsCount",
      "outputs": [
        {
          "internalType": "uint256",
          "name": "",
          "type": "uint256"
        }
      ],
      "stateMutability": "view",
      "type": "function"
    },
    {
      "inputs": [],
      "name": "getOwner",
      "outputs": [
        {
          "internalType": "address",
          "name": "",
          "type": "address"
        }
      ],
      "stateMutability": "view",
      "type": "function"
    },
    {
      "inputs": [
        {
          "internalType": "address",
          "name": "owner",
          "type": "address"
        },
        {
          "internalType": "address",
          "name": "operator",
          "type": "address"
        }
      ],
      "name": "isApprovedForAll",
      "outputs": [
        {
          "internalType": "bool",
          "name": "",
          "type": "bool"
        }
      ],
      "stateMutability": "view",
      "type": "function"
    },
    {
      "inputs": [],
      "name": "name",
      "outputs": [
        {
          "internalType": "string",
          "name": "",
          "type": "string"
        }
      ],
      "stateMutability": "view",
      "type": "function"
    },
    {
      "inputs": [
        {
          "internalType": "uint256",
          "name": "tokenId",
          "type": "uint256"
        }
      ],
      "name": "ownerOf",
      "outputs": [
        {
          "internalType": "address",
          "name": "",
          "type": "address"
        }
      ],
      "stateMutability": "view",
      "type": "function"
    },
    {
      "inputs": [
        {
          "internalType": "address",
          "name": "from",
          "type": "address"
        },
        {
          "internalType": "address",
          "name": "to",
          "type": "address"
        },
        {
          "internalType": "uint256",
          "name": "tokenId",
          "type": "uint256"
        }
      ],
      "name": "safeTransferFrom",
      "outputs": [],
      "stateMutability": "nonpayable",
      "type": "function"
    },
    {
      "inputs": [
        {
          "internalType": "address",
          "name": "from",
          "type": "address"
        },
        {
          "internalType": "address",
          "name": "to",
          "type": "address"
        },
        {
          "internalType": "uint256",
          "name": "tokenId",
          "type": "uint256"
        },
        {
          "internalType": "bytes",
          "name": "data",
          "type": "bytes"
        }
      ],
      "name": "safeTransferFrom",
      "outputs": [],
      "stateMutability": "nonpayable",
      "type": "function"
    },
    {
      "inputs": [
        {
          "internalType": "address",
          "name": "operator",
          "type": "address"
        },
        {
          "internalType": "bool",
          "name": "approved",
          "type": "bool"
        }
      ],
      "name": "setApprovalForAll",
      "outputs": [],
      "stateMutability": "nonpayable",
      "type": "function"
    },
    {
      "inputs": [
        {
          "internalType": "bytes4",
          "name": "interfaceId",
          "type": "bytes4"
        }
      ],
      "name": "supportsInterface",
      "outputs": [
        {
          "internalType": "bool",
          "name": "",
          "type": "bool"
        }
      ],
      "stateMutability": "view",
      "type": "function"
    },
    {
      "inputs": [],
      "name": "symbol",
      "outputs": [
        {
          "internalType": "string",
          "name": "",
          "type": "string"
        }
      ],
      "stateMutability": "view",
      "type": "function"
    },
    {
      "inputs": [
        {
          "internalType": "uint256",
          "name": "tokenId",
          "type": "uint256"
        }
      ],
      "name": "tokenURI",
      "outputs": [
        {
          "internalType": "string",
          "name": "",
          "type": "string"
        }
      ],
      "stateMutability": "view",
      "type": "function"
    },
    {
      "inputs": [
        {
          "internalType": "address",
          "name": "from",
          "type": "address"
        },
        {
          "internalType": "address",
          "name": "to",
          "type": "address"
        },
        {
          "internalType": "uint256",
          "name": "tokenId",
          "type": "uint256"
        }
      ],
      "name": "transferFrom",
      "outputs": [],
      "stateMutability": "nonpayable",
      "type": "function"
    }
  ],
  "bytecode": "0x60a06040523480156200001157600080fd5b506040518060400160405280600981526020017f45544820446164647900000000000000000000000000000000000000000000008152506040518060400160405280600381526020017f4441440000000000000000000000000000000000000000000000000000000000815250816000908051906020019062000096929190620000ff565b508060019080519060200190620000af929190620000ff565b5050503373ffffffffffffffffffffffffffffffffffffffff1660808173ffffffffffffffffffffffffffffffffffffffff1660601b815250506000600681905550600060078190555062000214565b8280546200010d90620001af565b90600052602060002090601f0160209004810192826200013157600085556200017d565b82601f106200014c57805160ff19168380011785556200017d565b828001600101855582156200017d579182015b828111156200017c5782518255916020019190600101906200015f565b5b5090506200018c919062000190565b5090565b5b80821115620001ab57600081600090555060010162000191565b5090565b60006002820490506001821680620001c857607f821691505b60208210811415620001df57620001de620001e5565b5b50919050565b7f4e487b7100000000000000000000000000000000000000000000000000000000600052602260045260246000fd5b60805160601c61302e620002336000396000610f91015261302e6000f3fe6080604052600436106101355760003560e01c80636352211e116100ab57806395d89b411161006f57806395d89b4114610419578063a22cb46514610444578063b88d4fde1461046d578063c87b56dd14610496578063d54758a2146104d3578063e985e9c51461051057610135565b80636352211e14610320578063677745871461035d57806370a08231146103865780637c38a1ff146103c3578063893d20e8146103ee57610135565b806312065fe0116100fd57806312065fe01461022457806323b872dd1461024f57806331dcb9251461027857806342842e0e146102a357806355ad957e146102cc57806357ea89b61461030957610135565b806301ffc9a71461013a57806306fdde031461017757806307883703146101a2578063081812fc146101be578063095ea7b3146101fb575b600080fd5b34801561014657600080fd5b50610161600480360381019061015c91906123a3565b61054d565b60405161016e9190612841565b60405180910390f35b34801561018357600080fd5b5061018c61062f565b604051610199919061285c565b60405180910390f35b6101bc60048036038101906101b79190612459565b6106c1565b005b3480156101ca57600080fd5b506101e560048036038101906101e09190612459565b610830565b6040516101f291906127da565b60405180910390f35b34801561020757600080fd5b50610222600480360381019061021d9190612363565b610876565b005b34801561023057600080fd5b5061023961098e565b6040516102469190612a00565b60405180910390f35b34801561025b57600080fd5b506102766004803603810190610271919061224d565b610996565b005b34801561028457600080fd5b5061028d6109f6565b60405161029a9190612a00565b60405180910390f35b3480156102af57600080fd5b506102ca60048036038101906102c5919061224d565b610a00565b005b3480156102d857600080fd5b506102f360048036038101906102ee9190612459565b610a20565b60405161030091906129de565b60405180910390f35b34801561031557600080fd5b5061031e610b04565b005b34801561032c57600080fd5b5061034760048036038101906103429190612459565b610d2e565b60405161035491906127da565b60405180910390f35b34801561036957600080fd5b50610384600480360381019061037f91906123fd565b610db5565b005b34801561039257600080fd5b506103ad60048036038101906103a891906121e0565b610ecb565b6040516103ba9190612a00565b60405180910390f35b3480156103cf57600080fd5b506103d8610f83565b6040516103e59190612a00565b60405180910390f35b3480156103fa57600080fd5b50610403610f8d565b60405161041091906127da565b60405180910390f35b34801561042557600080fd5b5061042e610fb5565b60405161043b919061285c565b60405180910390f35b34801561045057600080fd5b5061046b60048036038101906104669190612323565b611047565b005b34801561047957600080fd5b50610494600480360381019061048f91906122a0565b61105d565b005b3480156104a257600080fd5b506104bd60048036038101906104b89190612459565b6110bf565b6040516104ca919061285c565b60405180910390f35b3480156104df57600080fd5b506104fa60048036038101906104f591906121e0565b611127565b6040516105079190612a00565b60405180910390f35b34801561051c57600080fd5b506105376004803603810190610532919061220d565b611170565b6040516105449190612841565b60405180910390f35b60007f80ac58cd000000000000000000000000000000000000000000000000000000007bffffffffffffffffffffffffffffffffffffffffffffffffffffffff1916827bffffffffffffffffffffffffffffffffffffffffffffffffffffffff1916148061061857507f5b5e139f000000000000000000000000000000000000000000000000000000007bffffffffffffffffffffffffffffffffffffffffffffffffffffffff1916827bffffffffffffffffffffffffffffffffffffffffffffffffffffffff1916145b80610628575061062782611204565b5b9050919050565b60606000805461063e90612bb7565b80601f016020809104026020016040519081016040528092919081815260200182805461066a90612bb7565b80156106b75780601f1061068c576101008083540402835291602001916106b7565b820191906000526020600020905b81548152906001019060200180831161069a57829003601f168201915b5050505050905090565b60065481106106fc576040517f4ad2defe00000000000000000000000000000000000000000000000000000000815260040160405180910390fd5b346008600083815260200190815260200160002060010154111561074c576040517f13c72e3600000000000000000000000000000000000000000000000000000000815260040160405180910390fd5b600115156008600083815260200190815260200160002060020160009054906101000a900460ff16151514156107ae576040517f7771f2d200000000000000000000000000000000000000000000000000000000815260040160405180910390fd5b6007600081546001019190508190555060016008600083815260200190815260200160002060020160006101000a81548160ff02191690831515021790555061082d33826040518060400160405280600281526020017f307800000000000000000000000000000000000000000000000000000000000081525061126e565b50565b600061083b826112c9565b6004600083815260200190815260200160002060009054906101000a900473ffffffffffffffffffffffffffffffffffffffff169050919050565b600061088182610d2e565b90508073ffffffffffffffffffffffffffffffffffffffff168373ffffffffffffffffffffffffffffffffffffffff1614156108f2576040517f08c379a00000000000000000000000000000000000000000000000000000000081526004016108e99061299e565b60405180910390fd5b8073ffffffffffffffffffffffffffffffffffffffff16610911611314565b73ffffffffffffffffffffffffffffffffffffffff161480610940575061093f8161093a611314565b611170565b5b61097f576040517f08c379a0000000000000000000000000000000000000000000000000000000008152600401610976906129be565b60405180910390fd5b610989838361131c565b505050565b600047905090565b6109a76109a1611314565b826113d5565b6109e6576040517f08c379a00000000000000000000000000000000000000000000000000000000081526004016109dd9061287e565b60405180910390fd5b6109f183838361146a565b505050565b6000600654905090565b610a1b8383836040518060200160405280600081525061105d565b505050565b610a28611fd1565b60086000838152602001908152602001600020604051806060016040529081600082018054610a5690612bb7565b80601f0160208091040260200160405190810160405280929190818152602001828054610a8290612bb7565b8015610acf5780601f10610aa457610100808354040283529160200191610acf565b820191906000526020600020905b815481529060010190602001808311610ab257829003601f168201915b50505050508152602001600182015481526020016002820160009054906101000a900460ff1615151515815250509050919050565b6000600960003373ffffffffffffffffffffffffffffffffffffffff1673ffffffffffffffffffffffffffffffffffffffff168152602001908152602001600020541415610b7e576040517f32cf163100000000000000000000000000000000000000000000000000000000815260040160405180910390fd5b600960003373ffffffffffffffffffffffffffffffffffffffff1673ffffffffffffffffffffffffffffffffffffffff16815260200190815260200160002054610bc661098e565b1015610bfe576040517fc310c4fd00000000000000000000000000000000000000000000000000000000815260040160405180910390fd5b6000600960003373ffffffffffffffffffffffffffffffffffffffff1673ffffffffffffffffffffffffffffffffffffffff1681526020019081526020016000205490506000600960003373ffffffffffffffffffffffffffffffffffffffff1673ffffffffffffffffffffffffffffffffffffffff1681526020019081526020016000208190555060003373ffffffffffffffffffffffffffffffffffffffff1682604051610cad906127c5565b60006040518083038185875af1925050503d8060008114610cea576040519150601f19603f3d011682016040523d82523d6000602084013e610cef565b606091505b5050905080610d2a576040517f438eca9000000000000000000000000000000000000000000000000000000000815260040160405180910390fd5b5050565b600080610d3a83611764565b9050600073ffffffffffffffffffffffffffffffffffffffff168173ffffffffffffffffffffffffffffffffffffffff161415610dac576040517f08c379a0000000000000000000000000000000000000000000000000000000008152600401610da39061297e565b60405180910390fd5b80915050919050565b6040518060600160405280838152602001828152602001600015158152506008600060065481526020019081526020016000206000820151816000019080519060200190610e04929190611ff4565b506020820151816001015560408201518160020160006101000a81548160ff0219169083151502179055509050506006600081546001019190508190555080600960003373ffffffffffffffffffffffffffffffffffffffff1673ffffffffffffffffffffffffffffffffffffffff1681526020019081526020016000205401600960003373ffffffffffffffffffffffffffffffffffffffff1673ffffffffffffffffffffffffffffffffffffffff168152602001908152602001600020819055505050565b60008073ffffffffffffffffffffffffffffffffffffffff168273ffffffffffffffffffffffffffffffffffffffff161415610f3c576040517f08c379a0000000000000000000000000000000000000000000000000000000008152600401610f339061293e565b60405180910390fd5b600360008373ffffffffffffffffffffffffffffffffffffffff1673ffffffffffffffffffffffffffffffffffffffff168152602001908152602001600020549050919050565b6000600754905090565b60007f0000000000000000000000000000000000000000000000000000000000000000905090565b606060018054610fc490612bb7565b80601f0160208091040260200160405190810160405280929190818152602001828054610ff090612bb7565b801561103d5780601f106110125761010080835404028352916020019161103d565b820191906000526020600020905b81548152906001019060200180831161102057829003601f168201915b5050505050905090565b611059611052611314565b83836117a1565b5050565b61106e611068611314565b836113d5565b6110ad576040517f08c379a00000000000000000000000000000000000000000000000000000000081526004016110a49061287e565b60405180910390fd5b6110b98484848461190e565b50505050565b60606110ca826112c9565b60006110d461196a565b905060008151116110f4576040518060200160405280600081525061111f565b806110fe84611981565b60405160200161110f9291906127a1565b6040516020818303038152906040525b915050919050565b6000600960008373ffffffffffffffffffffffffffffffffffffffff1673ffffffffffffffffffffffffffffffffffffffff168152602001908152602001600020549050919050565b6000600560008473ffffffffffffffffffffffffffffffffffffffff1673ffffffffffffffffffffffffffffffffffffffff16815260200190815260200160002060008373ffffffffffffffffffffffffffffffffffffffff1673ffffffffffffffffffffffffffffffffffffffff16815260200190815260200160002060009054906101000a900460ff16905092915050565b60007f01ffc9a7000000000000000000000000000000000000000000000000000000007bffffffffffffffffffffffffffffffffffffffffffffffffffffffff1916827bffffffffffffffffffffffffffffffffffffffffffffffffffffffff1916149050919050565b6112788383611a59565b6112856000848484611c77565b6112c4576040517f08c379a00000000000000000000000000000000000000000000000000000000081526004016112bb9061289e565b60405180910390fd5b505050565b6112d281611e0e565b611311576040517f08c379a00000000000000000000000000000000000000000000000000000000081526004016113089061297e565b60405180910390fd5b50565b600033905090565b816004600083815260200190815260200160002060006101000a81548173ffffffffffffffffffffffffffffffffffffffff021916908373ffffffffffffffffffffffffffffffffffffffff160217905550808273ffffffffffffffffffffffffffffffffffffffff1661138f83610d2e565b73ffffffffffffffffffffffffffffffffffffffff167f8c5be1e5ebec7d5bd14f71427d1e84f3dd0314c0f7b2291e5b200ac8c7c3b92560405160405180910390a45050565b6000806113e183610d2e565b90508073ffffffffffffffffffffffffffffffffffffffff168473ffffffffffffffffffffffffffffffffffffffff16148061142357506114228185611170565b5b8061146157508373ffffffffffffffffffffffffffffffffffffffff1661144984610830565b73ffffffffffffffffffffffffffffffffffffffff16145b91505092915050565b8273ffffffffffffffffffffffffffffffffffffffff1661148a82610d2e565b73ffffffffffffffffffffffffffffffffffffffff16146114e0576040517f08c379a00000000000000000000000000000000000000000000000000000000081526004016114d7906128be565b60405180910390fd5b600073ffffffffffffffffffffffffffffffffffffffff168273ffffffffffffffffffffffffffffffffffffffff161415611550576040517f08c379a0000000000000000000000000000000000000000000000000000000008152600401611547906128fe565b60405180910390fd5b61155d8383836001611e4f565b8273ffffffffffffffffffffffffffffffffffffffff1661157d82610d2e565b73ffffffffffffffffffffffffffffffffffffffff16146115d3576040517f08c379a00000000000000000000000000000000000000000000000000000000081526004016115ca906128be565b60405180910390fd5b6004600082815260200190815260200160002060006101000a81549073ffffffffffffffffffffffffffffffffffffffff02191690556001600360008573ffffffffffffffffffffffffffffffffffffffff1673ffffffffffffffffffffffffffffffffffffffff168152602001908152602001600020600082825403925050819055506001600360008473ffffffffffffffffffffffffffffffffffffffff1673ffffffffffffffffffffffffffffffffffffffff16815260200190815260200160002060008282540192505081905550816002600083815260200190815260200160002060006101000a81548173ffffffffffffffffffffffffffffffffffffffff021916908373ffffffffffffffffffffffffffffffffffffffff160217905550808273ffffffffffffffffffffffffffffffffffffffff168473ffffffffffffffffffffffffffffffffffffffff167fddf252ad1be2c89b69c2b068fc378daa952ba7f163c4a11628f55a4df523b3ef60405160405180910390a461175f8383836001611e55565b505050565b60006002600083815260200190815260200160002060009054906101000a900473ffffffffffffffffffffffffffffffffffffffff169050919050565b8173ffffffffffffffffffffffffffffffffffffffff168373ffffffffffffffffffffffffffffffffffffffff161415611810576040517f08c379a00000000000000000000000000000000000000000000000000000000081526004016118079061291e565b60405180910390fd5b80600560008573ffffffffffffffffffffffffffffffffffffffff1673ffffffffffffffffffffffffffffffffffffffff16815260200190815260200160002060008473ffffffffffffffffffffffffffffffffffffffff1673ffffffffffffffffffffffffffffffffffffffff16815260200190815260200160002060006101000a81548160ff0219169083151502179055508173ffffffffffffffffffffffffffffffffffffffff168373ffffffffffffffffffffffffffffffffffffffff167f17307eab39ab6107e8899845ad3d59bd9653f200f220920489ca2b5937696c31836040516119019190612841565b60405180910390a3505050565b61191984848461146a565b61192584848484611c77565b611964576040517f08c379a000000000000000000000000000000000000000000000000000000000815260040161195b9061289e565b60405180910390fd5b50505050565b606060405180602001604052806000815250905090565b60606000600161199084611e5b565b01905060008167ffffffffffffffff8111156119af576119ae612c78565b5b6040519080825280601f01601f1916602001820160405280156119e15781602001600182028036833780820191505090505b509050600082602001820190505b600115611a4e578080600190039150507f3031323334353637383961626364656600000000000000000000000000000000600a86061a8153600a8581611a3857611a37612c1a565b5b0494506000851415611a4957611a4e565b6119ef565b819350505050919050565b600073ffffffffffffffffffffffffffffffffffffffff168273ffffffffffffffffffffffffffffffffffffffff161415611ac9576040517f08c379a0000000000000000000000000000000000000000000000000000000008152600401611ac09061295e565b60405180910390fd5b611ad281611e0e565b15611b12576040517f08c379a0000000000000000000000000000000000000000000000000000000008152600401611b09906128de565b60405180910390fd5b611b20600083836001611e4f565b611b2981611e0e565b15611b69576040517f08c379a0000000000000000000000000000000000000000000000000000000008152600401611b60906128de565b60405180910390fd5b6001600360008473ffffffffffffffffffffffffffffffffffffffff1673ffffffffffffffffffffffffffffffffffffffff16815260200190815260200160002060008282540192505081905550816002600083815260200190815260200160002060006101000a81548173ffffffffffffffffffffffffffffffffffffffff021916908373ffffffffffffffffffffffffffffffffffffffff160217905550808273ffffffffffffffffffffffffffffffffffffffff16600073ffffffffffffffffffffffffffffffffffffffff167fddf252ad1be2c89b69c2b068fc378daa952ba7f163c4a11628f55a4df523b3ef60405160405180910390a4611c73600083836001611e55565b5050565b6000611c988473ffffffffffffffffffffffffffffffffffffffff16611fae565b15611e01578373ffffffffffffffffffffffffffffffffffffffff1663150b7a02611cc1611314565b8786866040518563ffffffff1660e01b8152600401611ce394939291906127f5565b602060405180830381600087803b158015611cfd57600080fd5b505af1925050508015611d2e57506040513d601f19601f82011682018060405250810190611d2b91906123d0565b60015b611db1573d8060008114611d5e576040519150601f19603f3d011682016040523d82523d6000602084013e611d63565b606091505b50600081511415611da9576040517f08c379a0000000000000000000000000000000000000000000000000000000008152600401611da09061289e565b60405180910390fd5b805181602001fd5b63150b7a0260e01b7bffffffffffffffffffffffffffffffffffffffffffffffffffffffff1916817bffffffffffffffffffffffffffffffffffffffffffffffffffffffff191614915050611e06565b600190505b949350505050565b60008073ffffffffffffffffffffffffffffffffffffffff16611e3083611764565b73ffffffffffffffffffffffffffffffffffffffff1614159050919050565b50505050565b50505050565b600080600090507a184f03e93ff9f4daa797ed6e38ed64bf6a1f0100000000000000008310611eb9577a184f03e93ff9f4daa797ed6e38ed64bf6a1f0100000000000000008381611eaf57611eae612c1a565b5b0492506040810190505b6d04ee2d6d415b85acef81000000008310611ef6576d04ee2d6d415b85acef81000000008381611eec57611eeb612c1a565b5b0492506020810190505b662386f26fc100008310611f2557662386f26fc100008381611f1b57611f1a612c1a565b5b0492506010810190505b6305f5e1008310611f4e576305f5e1008381611f4457611f43612c1a565b5b0492506008810190505b6127108310611f73576127108381611f6957611f68612c1a565b5b0492506004810190505b60648310611f965760648381611f8c57611f8b612c1a565b5b0492506002810190505b600a8310611fa5576001810190505b80915050919050565b6000808273ffffffffffffffffffffffffffffffffffffffff163b119050919050565b604051806060016040528060608152602001600081526020016000151581525090565b82805461200090612bb7565b90600052602060002090601f0160209004810192826120225760008555612069565b82601f1061203b57805160ff1916838001178555612069565b82800160010185558215612069579182015b8281111561206857825182559160200191906001019061204d565b5b509050612076919061207a565b5090565b5b8082111561209357600081600090555060010161207b565b5090565b60006120aa6120a584612a40565b612a1b565b9050828152602081018484840111156120c6576120c5612cac565b5b6120d1848285612b75565b509392505050565b60006120ec6120e784612a71565b612a1b565b90508281526020810184848401111561210857612107612cac565b5b612113848285612b75565b509392505050565b60008135905061212a81612f9c565b92915050565b60008135905061213f81612fb3565b92915050565b60008135905061215481612fca565b92915050565b60008151905061216981612fca565b92915050565b600082601f83011261218457612183612ca7565b5b8135612194848260208601612097565b91505092915050565b600082601f8301126121b2576121b1612ca7565b5b81356121c28482602086016120d9565b91505092915050565b6000813590506121da81612fe1565b92915050565b6000602082840312156121f6576121f5612cb6565b5b60006122048482850161211b565b91505092915050565b6000806040838503121561222457612223612cb6565b5b60006122328582860161211b565b92505060206122438582860161211b565b9150509250929050565b60008060006060848603121561226657612265612cb6565b5b60006122748682870161211b565b93505060206122858682870161211b565b9250506040612296868287016121cb565b9150509250925092565b600080600080608085870312156122ba576122b9612cb6565b5b60006122c88782880161211b565b94505060206122d98782880161211b565b93505060406122ea878288016121cb565b925050606085013567ffffffffffffffff81111561230b5761230a612cb1565b5b6123178782880161216f565b91505092959194509250565b6000806040838503121561233a57612339612cb6565b5b60006123488582860161211b565b925050602061235985828601612130565b9150509250929050565b6000806040838503121561237a57612379612cb6565b5b60006123888582860161211b565b9250506020612399858286016121cb565b9150509250929050565b6000602082840312156123b9576123b8612cb6565b5b60006123c784828501612145565b91505092915050565b6000602082840312156123e6576123e5612cb6565b5b60006123f48482850161215a565b91505092915050565b6000806040838503121561241457612413612cb6565b5b600083013567ffffffffffffffff81111561243257612431612cb1565b5b61243e8582860161219d565b925050602061244f858286016121cb565b9150509250929050565b60006020828403121561246f5761246e612cb6565b5b600061247d848285016121cb565b91505092915050565b61248f81612b01565b82525050565b61249e81612b13565b82525050565b6124ad81612b13565b82525050565b60006124be82612aa2565b6124c88185612ab8565b93506124d8818560208601612b84565b6124e181612cbb565b840191505092915050565b60006124f782612aad565b6125018185612ad4565b9350612511818560208601612b84565b61251a81612cbb565b840191505092915050565b600061253082612aad565b61253a8185612ae5565b935061254a818560208601612b84565b61255381612cbb565b840191505092915050565b600061256982612aad565b6125738185612af6565b9350612583818560208601612b84565b80840191505092915050565b600061259c602d83612ae5565b91506125a782612ccc565b604082019050919050565b60006125bf603283612ae5565b91506125ca82612d1b565b604082019050919050565b60006125e2602583612ae5565b91506125ed82612d6a565b604082019050919050565b6000612605601c83612ae5565b915061261082612db9565b602082019050919050565b6000612628602483612ae5565b915061263382612de2565b604082019050919050565b600061264b601983612ae5565b915061265682612e31565b602082019050919050565b600061266e602983612ae5565b915061267982612e5a565b604082019050919050565b6000612691602083612ae5565b915061269c82612ea9565b602082019050919050565b60006126b4601883612ae5565b91506126bf82612ed2565b602082019050919050565b60006126d7602183612ae5565b91506126e282612efb565b604082019050919050565b60006126fa600083612ac9565b915061270582612f4a565b600082019050919050565b600061271d603d83612ae5565b915061272882612f4d565b604082019050919050565b6000606083016000830151848203600086015261275082826124ec565b91505060208301516127656020860182612783565b5060408301516127786040860182612495565b508091505092915050565b61278c81612b6b565b82525050565b61279b81612b6b565b82525050565b60006127ad828561255e565b91506127b9828461255e565b91508190509392505050565b60006127d0826126ed565b9150819050919050565b60006020820190506127ef6000830184612486565b92915050565b600060808201905061280a6000830187612486565b6128176020830186612486565b6128246040830185612792565b818103606083015261283681846124b3565b905095945050505050565b600060208201905061285660008301846124a4565b92915050565b600060208201905081810360008301526128768184612525565b905092915050565b600060208201905081810360008301526128978161258f565b9050919050565b600060208201905081810360008301526128b7816125b2565b9050919050565b600060208201905081810360008301526128d7816125d5565b9050919050565b600060208201905081810360008301526128f7816125f8565b9050919050565b600060208201905081810360008301526129178161261b565b9050919050565b600060208201905081810360008301526129378161263e565b9050919050565b6000602082019050818103600083015261295781612661565b9050919050565b6000602082019050818103600083015261297781612684565b9050919050565b60006020820190508181036000830152612997816126a7565b9050919050565b600060208201905081810360008301526129b7816126ca565b9050919050565b600060208201905081810360008301526129d781612710565b9050919050565b600060208201905081810360008301526129f88184612733565b905092915050565b6000602082019050612a156000830184612792565b92915050565b6000612a25612a36565b9050612a318282612be9565b919050565b6000604051905090565b600067ffffffffffffffff821115612a5b57612a5a612c78565b5b612a6482612cbb565b9050602081019050919050565b600067ffffffffffffffff821115612a8c57612a8b612c78565b5b612a9582612cbb565b9050602081019050919050565b600081519050919050565b600081519050919050565b600082825260208201905092915050565b600081905092915050565b600082825260208201905092915050565b600082825260208201905092915050565b600081905092915050565b6000612b0c82612b4b565b9050919050565b60008115159050919050565b60007fffffffff0000000000000000000000000000000000000000000000000000000082169050919050565b600073ffffffffffffffffffffffffffffffffffffffff82169050919050565b6000819050919050565b82818337600083830152505050565b60005b83811015612ba2578082015181840152602081019050612b87565b83811115612bb1576000848401525b50505050565b60006002820490506001821680612bcf57607f821691505b60208210811415612be357612be2612c49565b5b50919050565b612bf282612cbb565b810181811067ffffffffffffffff82111715612c1157612c10612c78565b5b80604052505050565b7f4e487b7100000000000000000000000000000000000000000000000000000000600052601260045260246000fd5b7f4e487b7100000000000000000000000000000000000000000000000000000000600052602260045260246000fd5b7f4e487b7100000000000000000000000000000000000000000000000000000000600052604160045260246000fd5b600080fd5b600080fd5b600080fd5b600080fd5b6000601f19601f8301169050919050565b7f4552433732313a2063616c6c6572206973206e6f7420746f6b656e206f776e6560008201527f72206f7220617070726f76656400000000000000000000000000000000000000602082015250565b7f4552433732313a207472616e7366657220746f206e6f6e20455243373231526560008201527f63656976657220696d706c656d656e7465720000000000000000000000000000602082015250565b7f4552433732313a207472616e736665722066726f6d20696e636f72726563742060008201527f6f776e6572000000000000000000000000000000000000000000000000000000602082015250565b7f4552433732313a20746f6b656e20616c7265616479206d696e74656400000000600082015250565b7f4552433732313a207472616e7366657220746f20746865207a65726f2061646460008201527f7265737300000000000000000000000000000000000000000000000000000000602082015250565b7f4552433732313a20617070726f766520746f2063616c6c657200000000000000600082015250565b7f4552433732313a2061646472657373207a65726f206973206e6f74206120766160008201527f6c6964206f776e65720000000000000000000000000000000000000000000000602082015250565b7f4552433732313a206d696e7420746f20746865207a65726f2061646472657373600082015250565b7f4552433732313a20696e76616c696420746f6b656e2049440000000000000000600082015250565b7f4552433732313a20617070726f76616c20746f2063757272656e74206f776e6560008201527f7200000000000000000000000000000000000000000000000000000000000000602082015250565b50565b7f4552433732313a20617070726f76652063616c6c6572206973206e6f7420746f60008201527f6b656e206f776e6572206f7220617070726f76656420666f7220616c6c000000602082015250565b612fa581612b01565b8114612fb057600080fd5b50565b612fbc81612b13565b8114612fc757600080fd5b50565b612fd381612b1f565b8114612fde57600080fd5b50565b612fea81612b6b565b8114612ff557600080fd5b5056fea26469706673582212207178963ce011eab8b3a1ce17c7ec6915136ea29f2e29c7ee10248157dae552f364736f6c63430008070033",
  "linkReferences": {},
  "deployedLinkReferences": {}
}